:020000040800F2
:10000000284A00205189000825730008277300083A
:10001000297300082B7300082D73000800000000EE
:100020000000000000000000000000003173000824
:100030002F730008000000003373000835730008B8
:100040003D7300083F7300084173000843730008C4
:100050004573000847730008497300084B73000894
:100060004D7300084F730008517300085373000864
:1000700067730008697300086B7300086D730008EC
:100080006F730008717300087373000875730008BC
:1000900077730008797300087B7300087D7300088C
:1000A000A3730008A5730008A7730008A9730008CC
:1000B000AB730008D1730008E9730008EB73000804
:1000C000ED730008EF730008F1730008F373000884
:1000D000F5730008F77300081B74000859740008D2
:1000E0005B74000873740008757400087774000866
:1000F000797400087B7400087D7400087F74000820
:1001000081740008837400088574000887740008EF
:1001100089740008CD740008CF740008D1740008F9
:10012000D3740008D5740008D7740008D974000887
:1001300030B403000C0015006A1E002D04D0257891
:100140001D70641C5B1CF6E730BC704710B40300E4
:100150001400621E002C02D019705B1CF8E710BC62
:10016000704770B403001C000D0000201600721EC2
:10017000002E06D020782E78801B6D1C641C002871
:10018000F4D070BC70470278002A04D002788A420A
:1001900001D0401CF7E700787047F8B504000D0067
:1001A000E06A0600AE4232D02079002821D0012337
:1001B000320014F13001607801F038FC002801D0E1
:1001C000012025E000202071206AE169081886429C
:1001D0000FD2E0780700FFB2022F0ADBE069861930
:1001E0000123320014F13001607801F01FFC7F1E02
:1001F000F1E7002D0BD001232A0014F130016078C3
:1002000001F004FC002801D0012001E0E56200209B
:10021000F2BD38B5040000212000FFF7BEFF050045
:10022000EDB2002D5ED12078032852D160790028EC
:100230004FD00020E0624FF40072002114F1300032
:10024000FFF784FF552084F82E02AA2084F82F029D
:10025000522084F83000522084F83100612084F864
:100260003200412084F83300722084F81402722096
:1002700084F81502412084F81602612084F81702E0
:10028000206984F81802206980B2000A84F81902F3
:100290002069000C84F81A022069000E84F81B0201
:1002A000E06884F81C02E06880B2000A84F81D024D
:1002B000E068000C84F81E02E068000E84F81F025B
:1002C0000123626914F13001607801F0AFFB002076
:1002D000607100220021607801F0B8FB002801D095
:1002E000012005002800C0B232BD0200891E9069BD
:1002F000801E814201D3002003E09078926A00FBC7
:10030000012070472DE9F04104000D00022D02D3B9
:10031000A069854201D3012080E02078012804D023
:100320007AD3032851D032D376E02F0017EB57074A
:10033000206A6189B7FBF1F109182000FFF72DFF52
:10034000002869D16089B7FBF0F100FB117000193A
:1003500090F8300006007F1C206A6189B7FBF1F13C
:1003600009182000FFF719FF002855D16089B7FB55
:10037000F0F100FB1170001990F8300056EA0026E9
:10038000E80701D5300901E03005000D46E0206A9C
:100390006189022291FBF2F1B5FBF1F1091820000D
:1003A000FFF7FBFE002837D168006189B0FBF1F24E
:1003B00001FB120000193030804698F8010098F8CF
:1003C000001051EA002080B228E0206A61890422EE
:1003D00091FBF2F1B5FBF1F109182000FFF7DDFE0A
:1003E000002819D1A8006189B0FBF1F201FB1200CD
:1003F00000193030804698F8030098F8021009047C
:1004000051EA006098F8011050EA012098F80010B5
:1004100008430001000901E05FF0FF30BDE8F08112
:100420002DE9F84304000D001600022D02D3A06947
:10043000854202D302208046A0E02078012805D022
:10044000C0F0988003286CD04BD393E0A94619EBF9
:100450005909206A6189B9FBF1F109182000FFF7F9
:100460009CFE80465FFA88F8B8F1000F40F0848067
:100470006089B9FBF0F100FB1190001930300700E2
:10048000E80705D5387810F00F0050EA061000E0B4
:100490003000387019F1010901202071206A61894A
:1004A000B9FBF1F109182000FFF777FE80465FFAEB
:1004B00088F8B8F1000F5FD16089B9FBF0F100FB5B
:1004C0001190001930300700E80701D5300906E027
:1004D000387810F0F000310A11F00F01084338703D
:1004E0004AE0206A6189022291FBF2F1B5FBF1F149
:1004F00009182000FFF751FE80465FFA88F8B8F12E
:10050000000F39D168006189B0FBF1F201FB1200E4
:100510000019303007003E70300080B2000A787059
:100520002AE0206A6189042291FBF2F1B5FBF1F126
:1005300009182000FFF731FE80465FFA88F8B8F10D
:10054000000F19D1A8006189B0FBF1F201FB120084
:10055000001930300700F878000610F070400643AC
:100560003E70300080B2000A7870300CB870300EE7
:10057000F87001E002208046012020714046C0B2A0
:10058000BDE8F283F8B504000D00022D02D3A06986
:10059000854202D3022006002AE000200600A0695E
:1005A000854225D229002000FFF7ACFE0700002F6E
:1005B0001ED0012F02D10220060019E017F1010F11
:1005C00002D10120060013E0002229002000FFF7DD
:1005D00027FF0600F6B2002E0AD1206910F1010FA4
:1005E00004D02069401C2061012060713D00D6E7E5
:1005F0003000C0B2F2BD2DE9F84304000D00002D1B
:100600000AD1E0688046B8F1000F02D0A0698045A9
:1006100011D3012080460EE029002000FFF772FE72
:100620000600022E01D2012051E0A069864201D2CB
:1006300030004CE0A84647467F1CA069874205D39E
:1006400002200700B84501D2002040E03900200018
:10065000FFF758FE0600002E0CD17FF070423900E3
:100660002000FFF7DDFE81465FFA89F9B9F1000F3E
:1006700013D10AE016F1010F01D0012E01D1300093
:1006800025E04745D8D1002021E0002D05D03A00D3
:1006900029002000FFF7C4FE81465FFA89F9B9F10D
:1006A000000F0AD1E760206910F1010F0ED0206918
:1006B000401E20610120607108E05FFA89F9B9F1FC
:1006C000010F02D15FF0FF3700E001273800BDE8DD
:1006D000F283F8B504000D00E580A0680600012E45
:1006E00003D020688069864201D302205FE0002E9B
:1006F00006D120680078032802D12068406A0600ED
:10070000002E14D1E66020680089ADB2854201D385
:1007100002204CE02068406A21684989202291FB30
:10072000F2F1ADB295FBF1F1081820612FE02068DD
:100730004089202190FBF1F0216889784843070027
:10074000ADB2BFB2BD4213D331002068FFF7DAFD6E
:10075000060016F1010F01D1012028E0022E03D37B
:1007600020688069864201D3022020E0ED1BE7E784
:10077000E66031002068FFF7B8FD21684989202232
:1007800091FBF2F1ADB295FBF1F108182061ADB229
:1007900020684089202190FBF1F095FBF0F100FBEF
:1007A0001150216811EB4010303060610020F2BD23
:1007B0002DE9F04104000D00E088401C0700BFB2A5
:1007C000002F02D02069002801D104209DE0BFB293
:1007D00020684089202190FBF1F097FBF0F100FBAD
:1007E0001170002840F080802069401C2061E06882
:1007F000002806D120680089BFB2874274D3042044
:1008000083E020684089202190FBF1F0BFB297FB84
:10081000F0F021688978491E084265D1E1682068B6
:10082000FFF770FD0600022E01D202206DE016F1E6
:10083000010F01D1012068E02068806986424DD314
:10084000002D01D1042060E0E1682068FFF7D3FEAD
:100850000600002E01D1072057E0012E01D1022011
:1008600053E016F1010F01D101204EE00021206874
:10087000FFF793FC002801D0012046E02068428960
:10088000002120683030FFF761FC31002068FFF75D
:100890002CFD2168C86200208046206880785FFABD
:1008A00088F8804512D20120216808710021206853
:1008B000FFF773FC002801D0012026E02068C06A01
:1008C000401C2168C86218F10108E6E72068C06A88
:1008D0005FFA88F8B0EB08002168C862E660310072
:1008E0002068FFF702FD2061E780BFB220684089E1
:1008F000202190FBF1F097FBF0F100FB11702168D3
:1009000011EB4010303060610020BDE8F081F8B597
:10091000040000212000FFF7DCFE0700FFB2002FDB
:1009200002D03800C0B225E021692068FFF735FC0D
:100930000700FFB2002F1BD1606906003078050068
:10094000EDB2002D02D10420070011E0F07A00077B
:1009500006D40B22A1693000FFF703FC002807D062
:1009600000212000FFF724FF0700FFB2002FDBD09B
:100970003800C0B2F2BDF8B50400042005002069BB
:10098000002822D021692068FFF707FC0500EDB29E
:10099000002D1AD16069070038780600F6B2002EE3
:1009A00002D10420050010E0F6B2E52E05D0F6B223
:1009B0002E2E02D0F87A000707D500212000FFF77D
:1009C000F7FE0500EDB2002DD9D0EDB2002D01D01B
:1009D000002020612800C0B2F2BDF8B5040000215B
:1009E0002000FFF776FE0500EDB2002D19D1216938
:1009F0002068FFF7D2FB0500EDB2002D11D1606930
:100A000000780600F6B2E52E02D0F6B2002E00D134
:100A100007E001212000FFF7CBFE0500EDB2002D1D
:100A2000E5D0EDB2002D16D121692068FFF7B5FBA6
:100A30000500EDB2002D0ED16069070020220021D3
:100A40003800FFF783FB0B22A1693800FFF770FB2A
:100A50000120216808712800C0B2F2BD2DE9F34FD2
:100A600081B00298006883469BF800002F2803D0CD
:100A70009BF800005C2802D11BF1010BF4E7019800
:100A8000806907000B2220213800FFF75FFB002060
:100A90000400E4B2A246D1460820804619F80B00B3
:100AA000050019F10109EDB2212D05DBEDB22F2D65
:100AB00002D0EDB25C2D07D119EB0B000299086052
:100AC000EDB2212D61DA5EE0EDB22E2D01D0C245EE
:100AD0000DD3B8F1080F02D1EDB22E2D01D00620B2
:100AE00072E0082082460B208046A400D6E7EDB2D3
:100AF000802D01DB54F00304EDB2812D22DBEDB239
:100B0000FF2D1FD019F80B00060019F10109F6B2EC
:100B1000402E02DBF6B27F2E05DBF6B2802E06DB1E
:100B2000F6B2FF2E03D0B8F10100824501D30620B2
:100B30004AE00AF807501AF1010A0AF807601AF1A8
:100B4000010AABE7EDB22900DFF8FC06FFF71BFB5B
:100B5000002801D0062037E0EDB2412D05DBEDB2D3
:100B60005B2D02DA54F0020408E0EDB2612D05DBE2
:100B7000EDB27B2D02DA54F00104203D0AF8075053
:100B80001AF1010A8AE7042500E00025BAF1000FF6
:100B900001D1062018E03878E52801D10520387009
:100BA000B8F1080F00D1A400E4B214F0030001284A
:100BB00001D155F01005E4B214F00C00042801D165
:100BC00055F00805FD720020BDE8FE8FF0B411F16C
:100BD00009073D000769002F46D047693B001F7B8E
:100BE0003A0000273E00082E0DD2F75C3C00E4B22C
:100BF000202C08D0E4B2052C01D1E5273C002C7054
:100C00006D1C761CEFE71F7A202F0FD02E272F7038
:100C10006D1C08273E000B2E08D2F75C3C00E4B2A6
:100C2000202C03D02C706D1C761CF4E7DF7A0F7239
:100C3000DF7F93F81EC05FEA0C4C5CEA076793F80D
:100C40001DC057EA0C2793F81CC05CEA07070F6029
:100C50005F7E93F818C05CEA07278F80DF7D93F8EA
:100C600016C05CEA0727CF8000272F70F0BC7047C2
:100C7000F2B50400009800782F2803D0009800787F
:100C80005C2802D10098401C00900020A0600098D1
:100C90000078202807D200212000FFF71AFD050068
:100CA0000020606131E000A92000FFF7D7FE0500B9
:100CB000EDB2002D29D12000FFF729FE0500A06923
:100CC000C07A0700EDB2002D07D0EDB2042D1CD183
:100CD000780701D40520050017E0780715D460696E
:100CE0000600F07AC00602D4052005000DE0707DF4
:100CF000317D51EA002080B2F17EB27E52EA0121BC
:100D000089B251EA0040A060CDE72800C0B2F2BD30
:100D100038B504000D0001232A0014F13001607879
:100D200000F074FE002801D003202DE094F82F027B
:100D300094F82E1251EA002080B24AF655218842DA
:100D400001D0022020E094F8680094F867100902AE
:100D500051EA004094F866100843DFF8F014884226
:100D600001D1002010E094F8840094F88310090267
:100D700051EA004094F882100843DFF8D01488420A
:100D800001D1002000E0012032BD2DE9F24F88B0F2
:100D900083461400DBF8009099F800003038029088
:100DA00002980A2808D299F801003A2804D119F1CA
:100DB0000209CBF8009001E0002002900298002880
:100DC00001D00B200CE2DFF88804029950F82100D2
:100DD00082460898C0F800A0BAF1000F01D10C209B
:100DE000FEE19AF80000002814D09AF8010000F003
:100DF0000AFE8DF800009DF80000C0070AD4E4B296
:100E0000002C05D09DF80000400701D50A20E7E13D
:100E10000020E5E100208AF8000002988AF801002D
:100E20009AF8010000F0ECFD8DF800009DF800003C
:100E3000C00701D50320D3E11AF10A0202219AF872
:100E4000010000F003FE002801D00120C8E1E4B257
:100E5000002C05D09DF80000400701D50A20BFE115
:100E60000020019001995046FFF752FF0500EDB2B6
:100E7000012D1AD11AF5F770039003980079002814
:100E800013D00398C07A0399897A090451EA006063
:100E90000399497A50EA01200399097A084301909D
:100EA00001995046FFF734FF0500EDB2032D01D143
:100EB000012095E1EDB2002D01D00D2090E19AF8CE
:100EC0003C009AF83B1051EA0020BAF80A1080B2B0
:100ED000884201D00D2083E19AF847009AF8461025
:100EE00051EA002080B20700002F0ED19AF8570077
:100EF0009AF85610090451EA00609AF8551050EA21
:100F000001209AF8541008430700CAF81C709AF898
:100F1000400006008AF80360F6B2012E04D0F6B253
:100F2000022E01D00D205BE1F6B277439AF83D0026
:100F300006008AF80260F6B2002E04D0711E30005E
:100F4000C0B2084201D00D204AE19AF842009AF856
:100F5000411051EA0020AAF80800BAF80800BAF8CF
:100F60000A10202291FBF2F190FBF1F201FB12003A
:100F7000002801D00D2033E19AF844009AF843107C
:100F800051EA002080B20590059800280ED19AF809
:100F900053009AF85210090451EA00609AF851106F
:100FA00050EA01209AF85010084305909AF83F0043
:100FB0009AF83E1051EA0020ADF80200BDF8020098
:100FC000002801D10D200BE1BDF802003818BAF855
:100FD0000A10202291FBF2F1BAF8082092FBF1F1FD
:100FE0000818069005980699884201D20D20F7E06E
:100FF00005980699401A9AF80210B0FBF1F0049097
:101000000498002801D10D20EAE001200500049891
:1010100040F6F671884201D30220050004984FF68D
:10102000F671884201D3032005000498801CCAF899
:101030001800019806990818CAF828000198BDF808
:1010400002100818CAF82000EDB2032D1AD1BAF820
:101050000800002801D00D20C2E09AF85F009AF83D
:101060005E10090451EA00609AF85D1050EA012010
:101070009AF85C100843CAF82400DAF818008000D7
:1010800080461CE0BAF80800002801D10D20A7E036
:10109000DAF820003818CAF82400EDB2022D04D185
:1010A000DAF818005FEA400809E0DAF818000321CE
:1010B00048439AF8181011F0010111EB5008BAF8E2
:1010C0000A00401E10EB0800BAF80A10B0FBF1F05D
:1010D000DAF81C10814201D20D2081E05FF0FF3070
:1010E000CAF810000020CAF80C00EDB2032D65D13B
:1010F00000208AF8050001989AF861109AF860209B
:1011000052EA012189B20818CAF814000123DAF85A
:1011100014201AF130019AF8010000F077FC002841
:101120004CD19AF82F029AF82E1251EA002080B280
:101130004AF65521884241D19AF833009AF8321084
:10114000090451EA00609AF8311050EA01209AF837
:10115000301008433F49884230D19AF817029AF874
:101160001612090451EA00609AF8151250EA01209B
:101170009AF814120843384988421FD19AF81F027E
:101180009AF81E12090451EA00609AF81D1250EAFA
:1011900001209AF81C120843CAF80C009AF81B02A6
:1011A0009AF81A12090451EA00609AF8191250EAE2
:1011B00001209AF818120843CAF810008AF8005063
:1011C00026480088401C2549088024480088AAF841
:1011D00006000020CAF82C0000208AF80400002035
:1011E00009B0BDE8F08F38B504000D00002C06D022
:1011F0002078002803D0E088ADB2A84201D00920B1
:1012000007E0607800F0FFFBC00701D5032000E095
:10121000002032BD0200D2B2002A01D00B2011E022
:101220000B48D2B250F822000300002B01D000205E
:101230001870002901D0002008700548D2B240F88B
:101240002210002070470000D0880008464154005A
:10125000083A00205252614172724161203A0020E6
:101260002DE9F2438AB0040017000020206017F037
:101270001F0717F0FE0200A90AA8FFF786FD050068
:1012800007A80690EDB2002D04D10A9900A8FFF737
:10129000EFFC050005980600EDB2002D03D1002EED
:1012A00001D1062005001C20074267D0EDB2002DB9
:1012B0000BD0EDB2042D03D100A8FFF78EFB050083
:1012C00057F00807059806000AE0F07A1121084255
:1012D00002D00720050003E0780701D508200500AB
:1012E000EDB2002D5AD1380758D500F0D3FB804617
:1012F00086F80E80404680B2000AF0735FEA18401C
:1013000030745FEA186070740020F072002030774B
:10131000002070770020B0770020F077707D317D5D
:1013200051EA002080B2F17EB27E52EA012189B2F8
:1013300051EA004081460020B0760020F07600207F
:10134000307500207075012000990871B9F1000F07
:1013500024D00098C06A804649460098FFF712F9E9
:101360000500EDB2002D19D1B9F101000099C86056
:1013700041460098FEF711FF05000FE0EDB2002D89
:101380000CD1F07AC00602D50420050006E0B807AB
:1013900004D5F07AC00701D507200500EDB2002D75
:1013A00007D1380701D557F020070098C06AE061DF
:1013B0002662EDB2002D21D1A771707D317D51EAF9
:1013C000002080B2F17EB27E52EA012189B251EA58
:1013D00000402061F07FB17F090451EA0060717F15
:1013E00050EA0120317F0843E0600020A060002027
:1013F000A061009820600098C088A0802800C0B23A
:101400000BB0BDE8F0832DE9F24F84B00400150065
:101410001E00DDF810A000203060A1882068FFF7D2
:10142000E2FE8DF808009DF80800002802D09DF823
:101430000800DCE0A079000601D50220D7E0A07901
:10144000C00701D40720D2E0E068A168401A0190EB
:101450000198A84201D201980500002D00F0C68035
:10146000A06821684989B0FBF1F201FB1200002855
:1014700040F08980A06821684989B0FBF1F02168BB
:101480008978491E084081465FFA89F9B9F1000F51
:101490001FD1A068002802D12069009004E0616992
:1014A0002068FEF72FFF00900098022805D2A0794F
:1014B00050F08000A071022099E0009810F1010F17
:1014C00005D1A07950F08000A07101208FE0009834
:1014D000606161692068FEF708FF8346BBF1000F79
:1014E00005D1A07950F08000A07102207FE05FFA62
:1014F00089F919EB0B0B20684089B5FBF0F08046A9
:10150000B8F1000F3DD0206880785FFA89F918EBB8
:101510000901884206D2206880785FFA89F9B0EB29
:10152000090080464346DBB25A465146206840785F
:1015300000F06CFA002805D0A07950F08000A0716E
:10154000012054E020680079002814D02068C06A87
:10155000B0EB0B0040450ED220684289206810F1A4
:1015600030012068C06AB0EB0B0023685B8903FB85
:1015700000A0FEF7DDFD2068408908FB00F00700B1
:101580002AE0C4F818B0A068216849892268528905
:10159000121AB0FBF1F001FB00200700BD4200D29F
:1015A0002F00A1692068FEF7F8FD002805D0A0797A
:1015B00050F08000A071012019E0A06821684989DD
:1015C0003A00B0FBF1F301FB13002168401810F161
:1015D00030015046FEF7ACFD17EB0A0AA068381838
:1015E000A060306838183060ED1B36E7002005B089
:1015F000BDE8F08F2DE9F24F82B0040015001E0007
:10160000DDF808B000203060A1882068FFF7EBFD0E
:101610008DF801009DF80100002802D09DF801001E
:1016200012E1A079000601D502200DE1A079800722
:1016300001D4072008E1E0682818E168884201D257
:1016400000200500002D00F0F480A0682168498981
:10165000B0FBF1F201FB1200002840F0B280A0685C
:1016600021684989B0FBF1F021688978491E08405A
:101670008DF800009DF80000002827D1A068002800
:101680000AD120690700002F0BD100212068FEF746
:10169000B2FF0700206104E061692068FEF7ABFF3C
:1016A0000700002F00F0C580012F05D1A07950F070
:1016B0008000A0710220C7E017F1010F05D1A079C9
:1016C00050F08000A0710120BEE067612068C06A10
:1016D000A16988420BD100212068FEF75EFD002839
:1016E00005D0A07950F08000A0710120ACE06169C4
:1016F0002068FEF7FAFD8046B8F1000F05D1A07909
:1017000050F08000A07102209EE09DF8000010EBD8
:10171000080820684089B5FBF0F08246BAF1000F56
:101720003AD0206880789DF800101AEB01018842B9
:1017300005D2206880789DF80010401A82465346F2
:10174000DBB2424659462068407800F06FF9002825
:1017500005D0A07950F08000A071012074E02068CD
:10176000C06AB0EB0800504510D22068428920685A
:10177000C06AB0EB08002168498901FB00B120680C
:101780003030FEF7D5FC00202168087120684089C0
:101790000AFB00F081463FE0A068E16888420ED372
:1017A00000212068FEF7F9FC002805D0A07950F050
:1017B0008000A071012047E02068C0F82C80C4F8A8
:1017C0001880A0682168498922685289121AB0FBE2
:1017D000F1F001FB002081464D4500D2A946A169E8
:1017E0002068FEF7DAFC002805D0A07950F08000D0
:1017F000A071012028E0A06821684B894A4659461B
:10180000B0FBF3FC03FB1C002368C0183030FEF76C
:101810008FFC01202168087119EB0B0BA06819EBF4
:101820000000A060306819EB00003060B5EB0905DE
:1018300008E7E068A168884201D2A068E060A0796A
:1018400050F02000A0710020BDE8FE8FF8B5040024
:10185000A1882068FFF7C7FC0500EDB2002D41D13B
:10186000A07980063ED5E1692068FEF796FC050068
:10187000EDB2002D36D1206A0700F87A50F0200032
:10188000F872E0683877E06880B2000A7877E0683C
:10189000000CB877E068000EF8772069B876206908
:1018A00080B2000AF8762069000C38752069000CB7
:1018B00080B2000A787500F0EDF80600BE753000C1
:1018C00080B2000AF875300C3876300E7876A07940
:1018D00010F0DF00A0710120216808712068FEF778
:1018E00098FC05002800C0B2F2BD38B50400200005
:1018F000FFF7ACFF0500EDB2002D01D10020206004
:101900002800C0B232BD32B584B0040000222100EC
:1019100004A8FFF73AFA0500EDB2002D34D100A873
:10192000A06104992000FFF7A3F90500EDB2002D96
:1019300025D16069002817D06069C07AC00611D52A
:101940006069407D6169097D51EA002080B261696A
:10195000C97E6269927E52EA012189B251EA004051
:10196000A06001E005200500EDB2002D07D1206840
:10197000C088A08000212000FEF7ABFE0500EDB27C
:10198000042D01D1052005002800C0B205B030BDEE
:1019900070B584B004000D00A1882068FFF723FC17
:1019A0000600F6B2002E27D1002D05D1002120001F
:1019B000FEF78FFE06001FE000A8A0612000FEF7E2
:1019C000DAFF0600F6B2042E03D1002020610020C9
:1019D0000600F6B2002E0FD129002000FFF7F6F81E
:1019E00000212000FEF7E4FE0600F6B2042E03D12B
:1019F00000202061002006003000C0B204B070BD9D
:101A0000010000207047010000207047F8B5040075
:101A10000D0016001F00FFB2012F05D14FF48052B8
:101A20002900300300F08DF80020F2BDF8B5040065
:101A30000D0016001F00FFB2012F05D14FF4805298
:101A40002900300300F0A4F80020F2BD10B4030018
:101A50000024DBB2002B01D0042019E0C9B2002918
:101A600005D002290CD007D3032901D00CE00DE0EA
:101A70004FF40070106009E04FF40070106005E052
:101A80004FF48050108001E0042004002000C0B218
:101A900010BC70470020704780B51021B24800F09C
:101AA00007FA062000F046F91021AF4800F0FDF9D2
:101AB00001BD80B51021AC4800F0FAF9042000F017
:101AC00039F91021A84800F0F0F900F01EF801BD26
:101AD00080B51021A44800F0EBF9502000F02AF95D
:101AE0001021A14800F0E1F910219F4800F0E0F931
:101AF000012000F01FF9002000F01CF910219A4885
:101B000000F0D3F900F001F801BD10B50124E4B2F2
:101B1000E00703D500F003F80400F8E710BD10B5A6
:101B20001021914800F0C4F9052000F003F900F0FD
:101B3000FCF8040010218C4800F0B7F92000C0B276
:101B400010BDF8B504000D001600002710218648CE
:101B500000F0AEF90B2000F0EDF8200CC0B200F060
:101B6000E9F8200AC0B200F0E5F82000C0B200F0A9
:101B7000E1F8002000F0DEF8B74204D200F0D5F81A
:101B800078557F1CF8E71021774800F08EF9F1BDF9
:101B90002DE9F04104000D0016000027200000F0A0
:101BA00054F8FFF795FFFFF777FF10216E4800F01C
:101BB0007FF9AD2000F0BEF8200CC0B200F0BAF8FA
:101BC000200AC0B200F0B6F82000C0B200F0B2F8AF
:101BD000287800F0AFF8687800F0ACF8102162487F
:101BE00000F063F902200700B6B2B7421BD278209A
:101BF0008046B8F1000F02D0B8F10108F9E71021D2
:101C0000594800F055F9AD2000F094F8785D00F0E7
:101C100091F87F1C785D00F08DF87F1C10215248F0
:101C200000F043F9E0E764208046B8F1000F02D0ED
:101C3000B8F10108F9E7FFF73CFF10214A4800F02E
:101C400037F9FFF762FFBDE8F08110B50400FFF738
:101C50003FFFFFF721FF1021434800F029F9202022
:101C600000F068F8200CC0B200F064F8200AC0B29E
:101C700000F060F82000C0B200F05CF810213A4893
:101C800000F013F9FFF741FF10BD00B587B0012147
:101C90004FF4805000F06DFAE020ADF80000032012
:101CA0008DF8020018208DF8030000A92E4800F0DE
:101CB00061F81020ADF8000003208DF8020010201C
:101CC0008DF8030000A9284800F054F80020ADF872
:101CD00004004FF48270ADF806000020ADF8080053
:101CE0000220ADF80A000120ADF80C004FF400709E
:101CF000ADF80E001020ADF810000020ADF8120075
:101D00000720ADF8140001A9184800F0ADFA012130
:101D1000164800F0C9FA1021134800F0C6F88021D7
:101D2000134800F0C2F807B000BD80B5A52000F050
:101D300001F802BD10B5040002210C4800F0C6FAFB
:101D40000028F9D0E4B2210089B2084800F0BAFABC
:101D50000121064800F0BAFA0028F9D0034800F043
:101D6000B3FAC0B210BD00000008014000300140CD
:101D7000000C0140F0B500270022002300240025BC
:101D8000002691F803C01CF00F0C674691F803C0C1
:101D90005FEACC6C03D591F802C05CEA070791F8C2
:101DA00000C05FEA0C6C3AD0D0F800C065465FF026
:101DB000000C6346082B31D25FF0010C1CFA03FCC7
:101DC0006446B1F800C014EA0C0C6246A24223D16A
:101DD0005FEA830C64465FF00F0C1CFA04FC664655
:101DE000B54317FA04FC5CEA050591F803C0BCF1A1
:101DF000280F06D15FF0010C1CFA03FCC0F814C0D8
:101E00000AE091F803C0BCF1480F05D15FF0010C66
:101E10001CFA03FCC0F810C05B1CCBE70560B1F8EE
:101E200000C0BCF1FF0F3FDDD0F804C065465FF095
:101E3000000C6346082B36D25FF0010C13F1080E3C
:101E40001CFA0EFC6446B1F800C014EA0C0C6246A1
:101E5000A24226D15FEA830C64465FF00F0C1CFAA5
:101E600004FC6646B54317FA04FC5CEA050591F8E4
:101E700003C0BCF1280F07D15FF0010C13F1080E6D
:101E80001CFA0EFCC0F814C091F803C0BCF1480F56
:101E900007D15FF0010C13F1080E1CFA0EFCC0F81C
:101EA00010C05B1CC6E74560F0BD89B20161704798
:101EB00089B24161704730B400220F2311F003044E
:101EC000E4B2A400A3401A000F4BC9B28C1053F81F
:101ED000243093430C4CC9B28D1044F825300A4B82
:101EE000C9B28C1053F82430C0B211F00304E4B22C
:101EF000A40010FA04F42343034CC9B28D1044F833
:101F0000253030BC7047000008000140DFF81C039A
:101F1000006850F00100DFF814130860DFF81003C8
:101F20000068DFF810130840DFF804130860DFF8DA
:101F3000FC020068DFF800130840DFF8F0120860C8
:101F4000DFF8E802006830F48020DFF8E012086073
:101F5000DFF8DC02006830F4FE00DFF8D41208601D
:101F60000020DFF8D81208607047DFF8C012096857
:101F700031F48031DFF8B4221160DFF8B012096863
:101F800031F48021DFF8A42211600100B1F5803F17
:101F900003D0B1F5802F09D011E0DFF89012096865
:101FA00051F48031DFF88422116008E0DFF87C1200
:101FB000096851F4A021DFF874221160FFE770472F
:101FC00038B50020009000240025312000F0FEF8F4
:101FD00005000098401C0090EDB2002D03D1009840
:101FE000B0F5A06FF1D1312000F0F0F8002802D058
:101FF0000120040001E0002004002000C0B232BD36
:102000000022DFF82C321B681A0032F47C1251EAED
:1020100000031A43DFF818321A607047C0B2DFF8C5
:102020002012086070470021814A12681100890857
:10203000890001437E4A116070477D48006810F0B6
:102040000C00704700217A4A1268110031F0F0014B
:102050000143774A116070470021754A12681100E8
:1020600031F4E0610143724A116070470021704A07
:102070001268110031F4605151EAC0016C4A1160DC
:10208000704700216A4A1268110031F4404101434F
:10209000674A1160704730B40021002400220023F9
:1020A000634D2D6815F00C0529000D00002D04D09E
:1020B000042D05D0082D06D026E0634D056025E0EF
:1020C000614D056022E05A4D2D6815F470152C0005
:1020D000A40CA41C564D2D6815F480352A00002A46
:1020E00004D15A4D05FB04F505600CE0504D2D68F8
:1020F000AD0304D5554D05FB04F5056003E0524DD5
:1021000005FB04F5056001E04F4D0560484D2D6865
:1021100015F0F005290009094D4D4D5D2B000568AE
:10212000DD404560424D2D6815F4E0652900090A3F
:10213000474D4D5D2B004568DD4085603C4D2D6869
:1021400015F460552900C90A414D4D5D2B004568C5
:10215000DD40C560364D2D6815F440452900890BDA
:102160003C4D4D5D2B00C568B5FBF3F5056130BCFA
:102170007047C9B2002905D0374A12680243364B6E
:102180001A6004E0344A12688243334B1A60704785
:10219000C9B2002905D0314A126802432F4B1A6098
:1021A00004E02E4A126882432C4B1A607047C9B271
:1021B000002905D02A4A12680243294B1A6004E01C
:1021C000274A12688243264B1A60704710B40100F8
:1021D000002200230020C9B24C09E4B22200012AE7
:1021E00003D1124C2468230008E0022A03D1154CC5
:1021F0002468230002E01B4C24682300C9B211F0BC
:102200001F04220033FA02F4E40702D5012420005F
:1022100001E000242000C0B210BC704711480068E3
:1022200050F080700F4908607047000000100240B5
:10223000041002400000FFF8FFFFF6FE0810024005
:10224000600042422010024000127A0000093D0066
:10225000E08800087C890008181002401C10024029
:10226000101002402410024010B4002203881A000B
:1022700012F441520B884C8823438C882343CC882A
:1022800023430C8923434C8923438C892343CC89E2
:1022900023431A430280838B4FF2FF7423408383CE
:1022A0000B8A038210BC7047C9B2002904D002888F
:1022B00052F04002028004E002884FF6BF731A40D9
:1022C000028070478181704780897047020000203A
:1022D00013890B4202D00123180001E000231800EB
:1022E000C0B270472DE9F04F80460FF21860A5B0DC
:1022F00017461D46D0E90023CDE9122300200491A2
:102300000D900DF1500A6FF0004900E0E719002030
:10231000ADF8020012AB4FF0FF3239460DF102006A
:1023200001F087F80446012C04DA3878441EA441F1
:10233000E043C40FBDF8020025280CBFA4F1010B37
:10234000A346BBF1010F0EDB3E4616F8011B0498B5
:10235000C0470490002800F0CF820D98401C0D90DB
:10236000BBF1010BF1D1BDF80200252807D10020F7
:102370000790089009900A900B900C9005E00028B7
:10238000C4D10D98BAE240F0010017F8011F2029CE
:10239000F9D023290DD02B2904D02D2906D030299E
:1023A0000AD00CE040F0020080B2EEE740F00400FA
:1023B000FAE740F00800F7E740F01000F4E72A29B8
:1023C0000ED12968296051F8042B29600F92002A48
:1023D00004D5514240F004000F9180B27F1C11E0FF
:1023E00000210F9109E00F99494505D001EB8103C8
:1023F00002EB430130390F917F1C3A78A2F1300192
:102400000A29F0D339782E2903D04FF0FF310E91ED
:102410001DE017F8011F2A2907D1296829607F1CB0
:1024200051F8042B29600E9211E000210E9109E071
:102430000E99494505D001EB810302EB4301303988
:102440000E917F1C3A78A2F130010A29F0D3ADF841
:1024500040000FF2B840397801F00CF808B117F8D5
:10246000010B8DF842009DF84200682802BF3978C0
:102470006829622005D06C2804BF38786C2803D105
:1024800071208DF842007F1C14A8069017F8014BAC
:10249000B4F125002AD01C3800F0CC80001F02289F
:1024A00040F2C880133800F0EE80093800F0C28096
:1024B000801E00F04F81401E00F02481401E022843
:1024C00040F2B880001F00F01D81401F00F08380A3
:1024D000401E00F0D880401E2DD0C01E0CD0801EA3
:1024E00000F0D180C01E00F0CE8056E101200790A0
:1024F00025208DF850005BE19DF842006C2828688B
:10250000286014D050F8046B286005960E9C002CAF
:1025100004D5304600F0BAFF044606E0224600210A
:10252000304600F0CFFF00B1841B089440E150F822
:10253000042B28602AE13C242968296051F8040B07
:1025400029600021CDE9020114A80590DDE902010E
:10255000069E11B908B90E9AB2B10206120FA0EB8D
:1025600002123032631ED2B21C463A2AA8BF27326A
:1025700000099A5540EA0170090908BF002803D0F4
:10258000059AA3199A42E8D3A0190590C4F13C0119
:102590000E980891814209DA401A0A904FF6EF71BD
:1025A000BDF840000840ADF8400001E1002840F1CE
:1025B000FF809DF8400000F01400102840F0F880E3
:1025C0000F98079A801A0A9A801A401A0128C0F2B6
:1025D000EF800A90ECE09DF8420062281AD068284B
:1025E00006D06A280CD06C281CD0712808D019E0BD
:1025F0002868286050F8041B28600D980880D7E0F0
:102600002868286050F8042B28600D98C117C2E98B
:102610000001CDE02868286050F8041B28600D9860
:102620000870C5E02868286050F8041B28600D98E1
:102630000860BDE02868C01D20F007022A60D2E9CA
:10264000000108322A60CDE90201002903D50120EA
:1026500007902D200CE0BDF84000810703D5012034
:1026600007902B2004E0C00704D50120079020200C
:102670008DF85000079914A808180590214602A863
:1026800000F08CFB94E09DF842206C2A0DD0712A5A
:1026900018BF6A2A09D12868C01D20F007032B60E3
:1026A000D3E9000108332B6005E02968296051F85F
:1026B000040B29600021CDE90201682A08BF80B21D
:1026C00007D0622A08BFC0B203D0742A18BF7A2A82
:1026D00002D10021CDE902019DF84000000730D56C
:1026E000DDE90201002908BF00282AD044F02000BB
:1026F000782826D130208DF850008AF80140022039
:1027000007901EE029469DF8420000F003F9CDE94C
:102710000201002904DA0798411C07912D210EE0DF
:10272000BDF84000810704D50798411C07912B2173
:1027300005E0C00705D50798411C0791202100F846
:102740000A10079914A808180590214602A800F05D
:10275000A1FA2DE09DF842006C2809D001200790D5
:102760002868286050F8041B28608DF850101FE07E
:1027700001AA2868286050F8041B2860ADF80410EE
:102780000020ADF806004FF0FF300E9002A9404641
:1027900000F0F7F800280BD5AEE0012007902520C7
:1027A0008DF8500024B10798411C079100F80A40A9
:1027B0000F980799401A0A99401A0899401A0B99DC
:1027C000401A0999401A0C99441A9DF84000400794
:1027D00010D420208DF80000002609E0012300AA73
:1027E00002A9404600F001FE002840F08580761CDA
:1027F000A642F3DB079E0DF1500B0AE01BF8011B0C
:102800000498C0470490002876D00D98401C0D9085
:10281000761E002EF2D130208DF800004FF0000B14
:102820000A9E09E0012300AA02A9404600F0DDFD4E
:10283000002861D10BF1010BB345F3DB089EDDF8F5
:1028400014B00AE01BF8011B0498C047049000284C
:1028500052D00D98401C0D90761E002EF2D13020E3
:102860008DF800004FF0000B0B9E09E0012300AA39
:1028700002A9404600F0B9FD00283DD10BF1010B43
:10288000B345F3DB05980899099E01EB000B09E0BD
:102890001BF8011B0498C047049068B30D98401CB6
:1028A0000D90761E002EF3D130208DF800004FF0F1
:1028B000000B0C9E08E0012300AA02A9404600F08C
:1028C00094FDC8B90BF1010BB345F4DB9DF8400052
:1028D00040077FF51CAD20208DF80000002600E0A9
:1028E000761CA642BFF613AD012300AA02A94046FA
:1028F00000F07BFD0028F3D04FF0FF3025B0BDE89D
:10290000F08F00000000000000000000686A6C7496
:102910007A4C0000622826D068281DD06A2808D08A
:102920006C2827D0712804D0742823D07A280CD0A2
:1029300020E00868C01D20F007000860D0E90023EF
:10294000083008601946104670470A680A6052F855
:10295000040B0A60002170470A680A6052F8040BF1
:102960000A6000B20BE00A680A6052F8040B0A60C1
:1029700040B204E00A680A6052F8040B0A60C1170A
:1029800070472DE9F44F0D4694B0D5F830B080462D
:10299000BBF1000F48BF6FF0004B00F0BFFD696B4B
:1029A000401801900FF67020D0E90023CDE90223F2
:1029B00095F83800400702D40198412806D24020FB
:1029C0000DF1100A01904FF0000909E000F0ACFD94
:1029D0005FEA000AF7D14FF0FF3058E1ABEB040B90
:1029E000BBF1010FC0F2CD801498018802AA0DF14D
:1029F000010000F0F1FD0446002800F1D580149894
:102A0000008810B9641E00F1CF80A345C0F2B980E0
:102A1000686901992218914280F0A180C5F834902C
:102A20004042296A401AA969401A696A401AE9694C
:102A3000401AA96AA0EB010995F83800400710D4A4
:102A400020208DF80000002609E0012300AA294675
:102A5000404600F0CAFC002840F0A680761C4E4597
:102A6000F3DB6E6957460BE017F8011BA868C047F7
:102A7000A860002800F09880E86A401CE862761E92
:102A8000002EF1D130208DF8000000272E6A09E0D9
:102A9000012300AA2946404600F0A7FC002840F088
:102AA00083807F1CB742F3DBAE69EF680AE017F85A
:102AB000011BA868C047A860002875D0E86A401CC0
:102AC000E862761E002EF2D130208DF8000000273B
:102AD0006E6A08E0012300AA2946404600F085FC02
:102AE000002861D17F1CB742F4DBE868A969EE6970
:102AF0000F180AE017F8011BA868C047A860002853
:102B000052D0E86A401CE862761E002EF2D13020D6
:102B10008DF800000027AE6A08E0012300AA2946CC
:102B2000404600F062FC00283ED17F1CB742F4DB37
:102B300095F8380040070ED520208DF800000026BB
:102B400007E0012300AA2946404600F04EFC58BB8E
:102B5000761C4E45F5DB4FF00009C5F8149022466F
:102B600068690DF10101504400F044FD68692018C6
:102B700068611498801C1490801E008800287FF4DF
:102B80002DAF686B6969401A296A401AA969401A11
:102B9000696A401AE969401AA96A471A95F8380023
:102BA000400710D400240CE04FF0FF3968E0A8681B
:102BB0002021C047A8600028F6D0E86A401CE862DF
:102BC000641CBC42F3DB6B6952462946404600F068
:102BD0000CFC0028E8D12C6A002609E0A868302106
:102BE000C047A8600028DFD0E86A401CE862761C75
:102BF000A642F3DBAB69EA682946404600F0F5FBE4
:102C00000028D1D16C6A002609E0A8683021C047AD
:102C1000A8600028C8D0E86A401CE862761CA6427A
:102C2000F3DBE868A969EB690A182946404600F019
:102C3000DCFB0028B8D1AC6A002609E0A868302186
:102C4000C047A8600028AFD0E86A401CE862761C44
:102C5000A642F3DB95F8380040070DD5002409E0C3
:102C6000A8682021C047A86000289DD0E86A401CC1
:102C7000E862641CBC42F3DBC5F81490C5F83490DC
:102C800004A882451CBF504600F0F0FC484615B031
:102C9000BDE8F08F2DE9FA4E05460A462F696F2AE6
:102CA00008BF082405D041F02000782814BF0A246A
:102CB0001024D5E900013C2681468A46642A18BFC3
:102CC000692A05D1002903DAD9F100096AEB4A0A19
:102CD000BAF1000F08BFB9F1000F0CD1286B50B941
:102CE000082C36D195F83800000732D530203B2625
:102CF00087F83B002DE0E31748465146224600F096
:102D0000F5FCA4FB0023A9EB02023032A6F1010B73
:102D1000D2B25E463A2A03DB9DF80030513B9A1846
:102D20000BF8072081465FEA010A08BFB9F1000FDE
:102D300003D0E868F1198842DDD3082C09D195F851
:102D40003800000705D5F05D302802D0761E30200F
:102D5000F055C6F13C00A861F119E960296B884281
:102D600008DA081A28624FF6EF71288F0840288782
:102D7000BDE8F38E00290ED595F8381001F0140146
:102D8000102908D1696B6A69891A2A6A891A081A8E
:102D90000128A8BF2862BDE8F38E00002DE9F24F9C
:102DA00004468EB0D4E90001CDE9020104AF9DF8DC
:102DB000380040F0200BBBF1610F0AD0206B0028D7
:102DC00048BF062004D408BFBBF1670F01D1012022
:102DD00020636168C1F30A5040F2FF7290421CD137
:102DE000080304BF2068002809D10320A0619DF8D2
:102DF000380061381A2836D30FF2306108E003201A
:102E0000A0619DF8380061381A2829D30FF21461A7
:102E1000E068032200F0EEFBBEE1012816DA20464E
:102E200000F0DBFC012811DB00250020BBF1610F65
:102E300020D1E168302201F8012B4A1CE2609DF8A4
:102E40003820612A0CBF782258220FE0626840F2D5
:102E5000FE3161F31E52451A62604FF0FF30E5E724
:102E60000FF2BC51D4E70FF2C051D1E70A7061698B
:102E7000891C616110B90026002584E1BBF1610F56
:102E800040F09780206B00284CBF2126461CDDE9CE
:102E90000201D4E900AB0022002336B200F0BEFCF0
:102EA00006F101083ABF8BF00040CDE902A0CDE960
:102EB00002AB2D1F8DF810200DF1110700E0C71D8A
:102EC000B8F1010F33DBDDE902010022002300F03D
:102ED000BDFC2CD21C2102A800F0D0FCDDE90201CF
:102EE00000F052FDA8F107088146B8F1010F09DB97
:102EF00000F076FD02460B46DDE9020100F088FD98
:102F0000CDE90201F81D072105E009F00F0200F8E4
:102F1000012D4FEA2919B9F1010F01DB491EF4D542
:102F2000491E5CBF002200F8012DF9D5C7E70DF15D
:102F30001100391A0DF11107B142B8BF0E4636B271
:102F400030002FD4884206DA04A9411849780829AC
:102F5000A8BF0F2100DA002104AA821800E0761E23
:102F600012F80139401E8B42F9D00F2904D104A96F
:102F700041184A78521C4A70002802D504AF761CCA
:102F80002D1D36B2701E0DD4C1190A783032D2B25E
:102F90003A2A03DB9DF838303A3B9A1801F80129A8
:102FA000401EF2D5206B002840F1ED80701E20639A
:102FB000E9E0DDE902010022002300F02FFC3CBF24
:102FC00081F00041CDE902012DB247F297506843EC
:102FD0004B49DFF8309190FBF1F52DB2C5F1070AAE
:102FE0009046BAF1010F1CDBDDE902675FEACA70A7
:102FF00007D542464B463046394600F0C9FD0646E5
:103000000F464FEA6A0A4046494642464B4600F0A0
:10301000BFFD80468946BAF1000FE7D1CDE90267CE
:1030200024E0CAF1000A0026374F14E05FEACA70B4
:1030300007D542464B463046394600F0A9FD0646C4
:103040000F464FEA6A0A4046494642464B4600F060
:103050009FFD80468946BAF1000FE7D1DDE9020104
:1030600032463B4600F066FECDE90201BBF1660F39
:103070000CBF05F10A000620216B4618142EA8BFCC
:10308000132630208DF810000DF11107DFF87C9029
:10309000012E3DDBDDE9020100F08CFC07F10801A7
:1030A00004220A23B0FBF3F303EB8307A0EB4700F2
:1030B000303001F8010D0A20B3FBF0F000EB80077F
:1030C000A3EB4703303301F8013D521EE9D1083E1E
:1030D00001F10807012EDBDBDDE9020100F06AFCEB
:1030E00000F088FC02460B46DDE9020100F090FC8E
:1030F00000224B4600F04CFDCDE90201CAE700BFBB
:10310000A0860100000024400000F03F84D79741D2
:103110000DF11100381A0DF1110702E0401E6D1E6D
:103120007F1C39783029F9D0BBF1660F02D12DB25E
:10313000691C04E0BBF1650F0CBF01210021226B6B
:103140008E1836B2B042B8BF064636B231001AD435
:10315000814204DAC85D3528A8BF392000DA302062
:10316000CA19521E00E0761E12F80139491E834228
:10317000F9D0392802D1C85D401CC855002902D5B4
:103180007F1E761C6D1C2DB29DF83810009533B251
:103190003A46204600F003F80FB0BDE8F08F2DE965
:1031A000F04786B006468A4690461D4600F003FF6B
:1031B000406A376B90F80090012D02DA01250FF27A
:1031C00070284AF02000BDF93840662808BF641C0A
:1031D00012D0672876D114F1040F79DBBC4277DA7C
:1031E00096F83800641C000702D4BD42B8BF2F46D1
:1031F00024B23F1B48BF0027F068B16924B2012CFC
:1032000021DA30234A1C0B54012F03DA96F83810C8
:10321000090702D502F80090521CB261E742B8BF1C
:103220007C4224B26142E7197162AF42B8BF3D46A9
:103230002DB2F5612A46B3694146181800F0DAF953
:10324000781BB062BAE00818A54216DA2A46414651
:1032500000F0D0F9B1696918B161601B7062012F8B
:1032600003DA96F83800000705D5F06801F80090F9
:10327000F069401CF061B762A0E02246414600F0D0
:10328000B9F9B06920182D1B012F03DA96F8381010
:10329000090703D5F16800F80190401C2DB2B06118
:1032A000AF42B8BF3D46F068B3692DB22A4604EB81
:1032B0000801181800F09EF9B0692818B061781B51
:1032C00070627BE0BAF1610F14D14FF0700A16E022
:1032D000BD4204DA96F83810090758BF2F467F1E02
:1032E00048BF0027BAF1670F14BF4FF0450A4FF0EF
:1032F000650A04E0BAF1410F08BF4FF0500AB16906
:10330000F06818F8013B0B544A1C012F05DA96F8B7
:103310003810090758BFB26115D502F80090531C48
:10332000B361012F0FDB6D1E2DB2AF42B8BF3D461A
:103330002DB22A464146181800F05CF9B0692818E9
:10334000B061781B7062F068B16901EB0008200081
:1033500008F801AB03D42B2008F8010B03E02D2162
:1033600008F8011B6442002502AF08E00A2200A809
:1033700000F03AFE019807F8010B6D1C009C21B289
:103380000129F3DA022D06DA4AF02000652804BF8D
:10339000302008F8010B4DB9302008F8010B07E088
:1033A0006D1E02A8285C303008F8010B012DF7DAF9
:1033B000F068B1690818A8EB0000F06196F83800D1
:1033C00000F0140010280DD17069B1690818716AF5
:1033D0000818F1690818B16A0818716B8842BCBFF7
:1033E000081A306206B0BDE8F087F8B504460D460D
:1033F00016461F46002004E0E86A401CE8627F1E73
:10340000002047B116F8011BA868A047A860002853
:10341000F2D14FF0FF30F2BD0000000000000000CC
:103420006E616E004E414E00696E6600494E460068
:103430003000F8B504460D4616461F4600F0DCFD88
:103440003B4632462946204601B0BDE8F04000F038
:10345000EABD50F8041B61B150F8042BD30744BFF8
:10346000A9F101039A18002342F8043B091FFAD17D
:10347000EFE770470278C9B28A421AB11CBF10F850
:10348000012FF9E718BF00207047000000F1010389
:10349000810704D010F8011B89B18107FAD10268B5
:1034A000B2F10131914311F0803F04BF50F8042F75
:1034B000F6E710F8011B11B110F8011BFBE7C01A69
:1034C00070470000C9B2830706D0521E22D310F8FD
:1034D000013B9942F7D11FE0083A13D302F10402ED
:1034E00041EA012141EA014150F8043B121F21BF8A
:1034F0004B40A3F1013C2CEA030C1CF0803FF3D0BD
:10350000C9B2001F083210F8013B521E28BF91EAD1
:10351000030FF8D818BF0120401E704780B500F097
:103520006BFD012002BD000070B5054605F10F00DE
:10353000C408E400C046C046A54232D2082C04D2DA
:10354000082402E0083000F091F8224802681100D7
:103550000CD1011D0A6802B31368A34238BF111DC4
:10356000F8D310E01D68A5420DD2191D0B68002B81
:10357000F8D11268011D00E0191D0B6893420CD0B0
:103580001D68A542F8D361B10D682A68A2F108034D
:10359000A3420AD26A680A600FE000F067FD0028C3
:1035A000D0D1C046C046002070BD63190B60121B0D
:1035B0006E685E600B681A602C60096800291DBF88
:1035C0004A68002A091D00210160C046C04605F175
:1035D000080070BDF439002070B504460D4616464B
:1035E00000F00AFD324629462046BDE8704000F052
:1035F0000DBD000062B38B0708D0521E11F8013BCD
:1036000000F8013B00F024808B07F6D1830740F0DF
:10361000208000BF103A07D330B4B1E83810103A18
:10362000A0E83810F9D230BC530724BFB1E8081025
:10363000A0E8081044BF51F8043B40F8043BD2070F
:1036400024BF31F8022B20F8022B44BF0B78037003
:103650007047083A07D3B1E80810083A40F8043B2D
:1036600040F804CBF7D25307E4E7000000B97047F5
:1036700038B5A0F108042068082833D310F0070FEC
:1036800030D1C046C0461848416809B18C4203D2C7
:103690006160446017E019464B680BB1A342FAD34E
:1036A0000B685D18AC421BD3A54204D12268D21826
:1036B0000A600C4607E04A681AB123681B199A424F
:1036C0000ED362604C60616851B1226813198B425D
:1036D00006D1002303600868801820604868606095
:1036E000C046C04631BD0000F43900201B4213D152
:1036F000094236D12AB18446B0FBF2F002FB10C277
:10370000704700F0C9BCFCD30022002370470B00B7
:103710000200002100207047904271EB030CF6D3A9
:1037200070B5B1FA81F4B3FA83F52C1BA340C4F150
:10373000200532FA05F63343A2405FF00046E6402A
:1037400002E05B085FEA3202841A71EB030524BFD2
:10375000204629467641F4D302000B0030000021B8
:1037600070BD012ACFD970B5140C20D0B1FA81F404
:10377000B2FA82F5C4F120046419B4F12006D6D35C
:10378000B2405FF00044F440002502E052085FEAD6
:103790003303C61A71EB020E24BF304671466441F2
:1037A0006D41F3D302000B002000290070BD0C46D0
:1037B000B1FBF2F102FB11452D0445EA1045B5FBC2
:1037C000F2F402FB145580B240EA0545B5FBF2F075
:1037D00002FB105240EA044070BD30B4436803F06D
:1037E000004201211B031B0B436004BF0368002B35
:1037F00008D10DE00368DD0F45EA440444605B0036
:103800000360491E4468E302F4D523031B0B4360A5
:1038100043681A434260084630BC70474FF4001CAE
:103820001CEB410F94BF1CEB430F09E041EA030C72
:1038300050EA4C0C52EA0C0C03D2994208BF904259
:10384000704714BF8B428242704700004FF4001C47
:103850001CEB410F94BF1CEB430F09E041EA030C42
:1038600050EA4C0C52EA0C0C03D28B4208BF824245
:10387000704714BF994290427047000070B50446EB
:103880000D466068C0F30A5040F2FF71884207D1CC
:103890006068000304BF2068002817D0022070BDB4
:1038A00020B92046FFF799FF012867DA012D0FDBC9
:1038B00040F2FF71091A8D420AD36068002847BFA1
:1038C00000202F4900202F49C4E90001012070BDCC
:1038D0004142A942616806DA6FF31E51401941EA7C
:1038E0000050606041E0401E63680122451962F3A8
:1038F0001F5305F1350001F000416360352803D303
:1039000061600020206070BD002215F11F0F04DAF5
:1039100022682360002020356060684213D0521E68
:1039200025689241C0F12003D2439D4045EAD272FE
:1039300025686668C54006FA03F32B432360636875
:1039400023FA00F06060606808436060B2F1004FE5
:1039500003D80DD12078C0070AD52068401C20600C
:10396000206828B96068401C60604FF0FF3070BD6F
:103970006068884204BF20680028F6D1002070BD2E
:103980000000F0FF0000F07FF446400D40EAC12047
:10399000490006D200F014F8004248BF6FF0004022
:1039A000604700F00DF84FF0004188428CBF084698
:1039B00040426047400D40EAC120490080F00D8040
:1039C00040F00040490DA1F58061491C05D4D1F1BA
:1039D0001F0154BFC840C01770474FF00000704728
:1039E000010040F10980F446404200F005F851F032
:1039F00000416047010000BF09D0B0FA80F1884063
:103A0000C91CC1F58461090501EBD021400570474F
:103A100070B44FF0004591EA030F44BF6B4000F0D3
:103A20003DBB00BF841A71EB030604D26E40001B3D
:103A3000B141121973414FF4001C1CEB410F34BF0C
:103A40007CEB430684E00C0DA4EB1356362E7DDC94
:103A5000012E43DC45EAC32343EA525312BFD2028C
:103A600092025B08240545EAC12141EA5051D2EB9C
:103A7000C020994125D407D1B0FA80F610FA06F19A
:103A800064D00020203608E0B1FA81F6B140C6F1DA
:103A9000200220FA02F21143B0404FEAF474B4EB72
:103AA000465434F001064FEA74040AD8D6F50016DD
:103AB000760D04F00044F04061FA06F25040F14007
:103AC0004840C00A40EA415021F0004128BF5FEA67
:103AD000500550F1000044EBD12137E045EAC32303
:103AE000DB0A45EAC121C90AB6F120050EDD42EA2A
:103AF0000242120CC5F1200603FA06F6EB4042EA38
:103B000006056D42984161F100010DE062FA06F58B
:103B1000F240554063FA06FC82EA0C02F3405A4038
:103B20006D42904161EB030111F4801F05D1641EC9
:103B3000620502D06D004041494121F480114308E3
:103B400075F1004350F1000041EB045170BC704727
:103B50001CEB410F15D223F0004352EA43060BD071
:103B60004FEA4C0CBCEB410F04D80C0D661E342EF2
:103B7000B7DDEBE7801A994150EA410608BF002102
:103B8000E4E708BF1CEB430F28BF6FF00001DDE73F
:103B9000B0B581EA030C0CF0004C40F2FF7515EA59
:103BA00011541DBF15EA1357AC42AF4239E0E41976
:103BB00023EA455343F48013C90241F0004141EA2E
:103BC000505EC7021100A7FB020200284FF0000060
:103BD000EEFB01204FF00001E3FB072118BF42F08C
:103BE0000102401800214941E3FB0E01A4F5806465
:103BF0000F0302D252004041494154F101046CDDEF
:103C0000470872F1004250F1000051EB0451A1F558
:103C100080115CBF41EA0C01B0BD4CEA05510020A7
:103C2000B0BD05EA1357AC4214BFAF4241E050EAC1
:103C3000410E1CBF52EA430E02E061460020B0BDB7
:103C400024423C441BD15FEA070EF6D0090302BFB1
:103C500001460020AEF1140EB1FA81F7AEEB070475
:103C600001FA07FE0C37C7F1200100FA07F7C84038
:103C70004EEA000E23EA455343F48013A2E733F0E3
:103C80000043B3FA83F704BFB2FA82FE77440B3FD6
:103C9000E41BB7F1200E2FBF02FA0EF3BB40C7F1B1
:103CA000200E22FA0EFE38BF43EA0E03BA40641C0F
:103CB00082E750EA410E14BF52EA430E6FF0000152
:103CC0004FF4001717EB430F8ABF194617EB410F4C
:103CD000B5E74CEA05510020B0BDD4F10104B4F1C0
:103CE00020070FDAC4F12007520828BF42F0010272
:103CF00010FA07F501FA07F7E1BF2A43E04038431D
:103D0000E1400FE0352C98DCC7F1200452EA400274
:103D100020FA07F218BF42F0010231FA07F0A14081
:103D20000A43002172F1004250F1000051EB0C01F6
:103D3000B0BD0000F0B540F2FF7581EA030C0CF055
:103D4000004C15EA11541DBF15EA1357AC42AF429F
:103D5000E5E0BC41C1F31301C3F31303801A994199
:103D600043F4801304D2641E400049418018594135
:103D7000C90241EA5051B1FBF3F603FB1611A2FB55
:103D80000675D7EBC020A94102D2761E8018594192
:103D9000C90241EA5051B1FBF3FE03FB1E11A2FB25
:103DA0000E75D7EBC020A94103D2AEF1010E8018E9
:103DB0005941890241EA9051760546EA8E2EB1FBBF
:103DC000F3F603FB1611A2FB0675D7EB8020A94181
:103DD00002D2761E80185941C90241EA50514EEA7A
:103DE000060EB1FBF3F603FB1611A2FB0675D7EB2B
:103DF000C020A94102D2761E80185941C90241EA69
:103E00005051B1FBF3F703FB1711A2FB0735D3EBBE
:103E1000C020A94167F100070CBF004247F001072D
:103E200066F3D5274FEA1E31B80814F5806412DD19
:103E3000BD0775F1004250EB0E5051EB045111F5E6
:103E4000801F5CBF41EA0C01F0BD4CF07F6141F086
:103E5000E0410020F0BDBD076D0840EA0E5041F47E
:103E60008011D4F10104B4F120060ADAC4F120066D
:103E70000200E04001FA06F3E1401843B240154366
:103E80000EE0342C13DCC6F1200445EA40056D0831
:103E900020FA06F2154321FA06F0A1400D43002155
:103EA00075F1004250F1000051EB0C01F0BD002013
:103EB0005FEA0C01F0BDCFB992185B41B3FA83F70A
:103EC00004BFB2FA82F6BF190B3FB7F120062FBF2D
:103ED00002FA06F3BB40C7F1200622FA06F638BF05
:103EE0003343BA401CB1E419641E33E77F4231F01A
:103EF0000041B1FA81F404BFB0FA80F6A4190B3C7A
:103F0000B4F120062FBF00FA06F1A140C4F120064B
:103F100020FA06F638BF3143A0403C1B1AE7AC42FA
:103F20001ABF05EA1357AF4212E050EA41061CBF20
:103F300052EA4306BFE750EA4107304661461CBFDC
:103F400041EA0551F0BD52EA430C08BFC143F0BD40
:103F500000204FF4001616EB410F98BF16EB430FED
:103F600008BF16EB410F24BFC14305E016EB430F1A
:103F70000CBF61464CEA0551F0BD000080B5134806
:103F800000F0F6F80FF24801016041608160C16005
:103F90000161416181610FF23C0242628162C16252
:103FA000016341630FF2300282630FF23402C26395
:103FB0000164416401BD10B5044800F0D9F804461D
:103FC000206808B9FFF7DAFF204610BD180300206B
:103FD000000000002E00000066616C7365000000A8
:103FE000747275650000000091FBF2F303FB12117F
:103FF000C0E900317047000080B5DFF80C0000F028
:10400000B7F8806902BD0000A803002030B430B9C1
:104010000FF24800D0E90045C2E900451BE00170FD
:10402000012030BC704730B431B90FF23800D0E90C
:104030000045C3E900450EE01AB930BC6FF001003D
:10404000704708B10A7802800978481E804130BC68
:10405000C043C00F7047002030BC70470000000014
:104060000000000000000000000000000749086890
:1040700008B1002070470648C008C0000860054924
:10408000C908C900091A0160704700BF1C3A002026
:104090002F4A0020285A002070470000841A71EB34
:1040A000030603D2001BB141121973414FF4001CE7
:1040B0001CEB410F34BF7CEB430443E00C0DA4EB3D
:1040C0001356352E50DC45EAC323DB0A45EAC121ED
:1040D000C912B6F120050DDD63FA05F6EB4086EA5C
:1040E0000305124218BF45F00105C01851F1000147
:1040F0000CD213E062FA06F5F2405540F3415A4003
:10410000B340F3405A408018594107D349085FEA49
:1041100030005FEA350528BF45F0010501F5801143
:10412000420875F1004250F1000041EB045170BCAF
:104130004FF4001C1CEB410F38BF70470020090DE5
:10414000090570471CEB410F10D252EA43060BD011
:10415000BCEB410F05D80C0DAB43661E342EB5DD0C
:1041600002E0AB438018594170BC704770BC704787
:1041700070470000F8B504000D000026E769032D24
:1041800006D0012D04D0DFF8800800F0B1FC4DE02E
:10419000A06C002802D0E06C002804D1DFF86C0885
:1041A00000F0A6FC42E0606F00280BD02000616F99
:1041B00088470600002E05D03100DFF8540800F0D3
:1041C00097FC39E02000A16C88470600002E05D03E
:1041D0003100DFF8400800F08BFC27E0032D07D109
:1041E000DFF834182000D4F888209047060006E055
:1041F000DFF828182000D4F8882090470600002E09
:1042000008D03100DFF8180800F072FC7FF00400DD
:1042100006000BE025602000E16C88470600002EB8
:1042200004D03100DFF8FC0700F062FCA06F00282A
:1042300002D02000A16F88473000F2BD01000320AA
:10424000C1F8C000002088600320C1F8C00040F21F
:104250006650A1F8A40041F65930A1F8A6008020CC
:10426000C1F8CC000420C1F8E00040F6B830C1F835
:10427000AC000020C1F8B40004200861102048619F
:1042800010208861002081F8DC00DFF89C07C862FC
:104290000820CA6A1071DFF89407C1F8D400002022
:1042A00070472DE9F043C1B0002500AF4FF480788E
:1042B0005FF000094A464146380000F02BFC3C0004
:1042C000002000F08EFD06003E707F1C00200500DF
:1042D000FE2D09DA012000F084FD06003E707F1CEF
:1042E000002E01D06D1CF3E700A9DFF8440700F0B1
:1042F000FFFB41B0BDE8F08338B50024042000F096
:1043000070FD050032BD38B5DFF828572800FFF7EB
:1043100095FF280001F093F901F0DAFB01F081FF2D
:104320000020C5F8C00001212800FFF723FF04008A
:10433000002C05D02100DFF8000700F0D9FB02E0D7
:104340000320C5F8C000FFF7D7FFFFF7AAFF200042
:1043500032BD10B5DFF8DC462000616A884710BD29
:1043600038B504000025200000F0BBFE0500280041
:1043700032BD2DE9F04383B004000026E769DFF881
:10438000BC86DFF8BC96C82000F02CFC002C04D1C1
:10439000DFF8B00600F0ACFBA4E0E06A006800289B
:1043A00006D00120E16A09688847012000F01AFC64
:1043B0002000FFF7D5FF002840F09480B4F8BE003D
:1043C0004FF6FF7188420CD0B4F8BE00002808D028
:1043D0000420C4F8E000012020601E2000F002FC50
:1043E00006E0D4F8E000062802D10520C4F8E00079
:1043F000DFF85406060000AA3100200000F04BFC54
:104400000500002D04D5DFF8440600F071FB69E0DB
:10441000009880B200900098C4F8E400009800284A
:1044200060D00099DFF8280600F062FB0098C0B267
:10443000022806D00099DFF81C0600F059FB002086
:1044400051E00099DFF8100600F052FB388D4FF66E
:10445000FF71884214D0388D002811D00420C4F890
:10446000E00001202060200000F00CFD0500002D80
:1044700006D02900DFF8E40500F03AFB002032E026
:104480000098F884388D4FF6FF7188422AD0388D15
:10449000002827D001AA4146200000F0FCFB0500BF
:1044A000002D04D5DFF8B80500F022FB1AE040F239
:1044B000D5714FF4FA6000F0A0FB01AA4946200034
:1044C00000F0E9FB0500002D04D5DFF8980500F0A9
:1044D0000FFB07E040F2D5714FF4FA6000F08DFB5E
:1044E000002038852800BDE8FE8310B5DFF844457C
:1044F0002000FFF73EFF10BD38B500240525002140
:10450000022000F09FFD0400002C05D0DFF85805C4
:1045100000F0EEFA200023E0142000F063FB0320FB
:1045200000F05FFC0400002C04D5DFF8400500F02B
:10453000DFFA09E02100DFF8380500F0D9FA002C95
:1045400002D06D1E002DE7D1012C08DB2100DFF821
:10455000240500F0CDFADFF8200500F0C9FA2000AC
:1045600032BD2DE9F04104000D00DFF8C8640027DA
:104570005FF00008D6F8E000844200F0A980D6F889
:10458000E000012807D0042815D0052841D00628CE
:1045900000F0848094E03000FFF7E2FE0700002F77
:1045A00005D03900DFF8D40400F0A2FA94E004202A
:1045B000C6F8E000DEE7012C03D10120C6F8E000D8
:1045C00002E00520C6F8E000D6F8E010280000F070
:1045D00039FD0700002F08D03900DFF8A40400F0EF
:1045E00087FA0420C6F8E00076E0D6F8E000052857
:1045F0000ED1322000F0F6FADFF8380400F0ABFFFD
:104600000700002F04D0DFF87C0400F071FA63E0AB
:10461000B0E7062C08D1FFF76FFF0700002F5BD132
:104620000620C6F8E00006E00420C6F8E0000120FD
:10463000306001208046D6F8E010280000F002FD2E
:104640000700002F07D0DFF8400400F051FA0520E2
:10465000C6F8E00040E0D6F8E000062807D1F06A8E
:104660000068002803D00020F16A0968884702200A
:10467000C6F8C000B8F1000F0FD0142000F0B2FA55
:10468000DFF8B00300F0FEFB0700002F05D539006E
:10469000DFF8F80300F02CFA1EE06BE7DFF8940374
:1046A000FFF75EFE0700002F04D0DFF8E40300F000
:1046B0001FFA11E00520DFF87C13C1F8E00059E78C
:1046C000DFF8D00300F014FA7FF01500070003E0D4
:1046D000DFF8C40300F00CFA3800BDE8F08138B50B
:1046E00004000025DFF8B413200000F0F2FB050001
:1046F000002D07D02900DFF8A80300F0F9F97FF0BA
:1047000004000500280032BD70B582B00400DFF857
:104710009403050000AA29002000A36E9847060014
:10472000002E04D03100DFF8800300F0E1F9300002
:1047300076BD2DE9F0478CB004000D005FF0000954
:104740005FF0000A00206064D848804600AA414615
:104750002000E36E98470600002E04D53100D448AF
:1047600000F0C6F949E00098000C48F22E0188429A
:1047700007D00099CF4800F0BBF97FF01500060084
:104780003BE0009880B20700002F06D0042097FB82
:10479000F0F101FB1071002907D03900C64800F084
:1047A000A7F97FF01500060027E03A00C349200072
:1047B000636E98470600002E04D53100C04800F013
:1047C00097F91AE00A22290002A8FCF749FD060021
:1047D000002E02D5BB4800F08BF901AB3A00B74977
:1047E00002A8FCF707FF0600002E03D53100B648EB
:1047F00000F07EF902A8FDF778F830000CB0BDE8B3
:10480000F0872DE9F34F9FB000255FF0000B0020EB
:1048100005900027002004905FF0000A0F208DF81B
:104820000200FF208DF80100F0208DF800001F9994
:104830000FA801F0E5FD01221F9915A8FCF710FD56
:104840000400002C04D522001F99A04800F050F964
:104850000A229F4906A8FCF703FD0400002C03D59B
:1048600021009C4800F044F90F980600B54271DA27
:104870004FF400708046002D02D04FF4FE70804649
:1048800018EB0500864201DA701B804603AB4246F6
:104890008A4915A8FCF7B7FD0400002C03D52100B8
:1048A0008D4800F025F9039807003B004246290097
:1048B0008A4800F01DF9002D1FD1804880789DF8AE
:1048C0000210084082462098401C9DF8001011EA12
:1048D00000105AEA000079498870784800788DF80D
:1048E0000400764840788DF80500744880788DF88B
:1048F00006007248C0788DF807007819B04207DAD0
:10490000B84505D158468DF807001BF1010B03E0AF
:104910009DF801008DF80700002D13D0002081467E
:10492000B9F1040F0ADA02AB012201A819EB000168
:1049300006A8FCF75FFE19F10109F1E70299684842
:1049400000F0D6F802AB3A005C4906A8FCF752FE2C
:104950007D198BE715A8FCF7C8FF06A8FCF7C5FF73
:1049600021B0BDE8F08F70B500240025314E05213F
:104970000420FFF7F6FD642000F034F9052105203E
:10498000FFF7EFFDFFF78DFC3000FFF7BDFE3000B5
:10499000FFF7A5FE0221062000F054FB01210720AD
:1049A00000F050FB082000F01CFA040021004D48E4
:1049B00000F09EF8002C02D0012C01D00AE00DE09E
:1049C0006D1C2900484800F093F80021072000F0F2
:1049D00039FB03E00021072000F034FB042D0DD14A
:1049E00042493000FFF7A5FE02214048FFF709FFCA
:1049F00005210420FFF7B5FD002004E04FF47A7094
:104A000000F0F0F8CEE770BDFC8400086C7A000876
:104A100014850008907A00085C8900086489000801
:104A2000A0810008B47A0008EC39002000000020C2
:104A30002C8500083C380020207D000800004E80B6
:104A4000060011806087000800006D80BC810008AE
:104A500050880008407D0008D8810008D87A0008F6
:104A6000F48100081082000844850008607D000879
:104A7000807D000814780008A07D00087487000875
:104A8000C07D00085C850008E07D0008007E00080D
:104A9000748500082C820008207E0008F088000839
:104AA000407E0008660531908C85000807002E8046
:104AB000607E0008FC7A00083C780008AC140020F6
:104AC0004882000860880008708800086482000836
:104AD000FC880008807E00088088000800770008B5
:104AE00090880008088900081489000820890008B7
:104AF0000EB400B582B003A90091024600AB0121BB
:104B0000034878440A30FDF7EDFB06BC5DF810FB66
:104B10002D3C000062F30F2262F31F42401810F098
:104B2000030308D0C91A1FD3DB0748BF00F8012DC3
:104B300028BF20F8022D130030B414461546103952
:104B400028BF20E93C00FAD8490728BF20E90C001B
:104B500048BF40F8042D890028BF20F8022D48BF27
:104B600000F8012D30BC7047C91818BF00F8012D9E
:104B7000CB0728BF00F8012D70470000010000207E
:104B800089B250EA112050EA012080B2704701003A
:104B9000002050EA11600A0A12F47F4210430A0210
:104BA00012F47F02104350EA0160704701000020B8
:104BB00050EA01600A0212F47F0210430A0A12F45A
:104BC0007F42104350EA11607047DFF8000600682A
:104BD000002806D0DFF8F4050068401EDFF8EC1569
:104BE000086070470100DFF8E4050160DFF8DC05CC
:104BF00000680028FAD100207047020088184FF49E
:104C0000FA6390FBF3F0DFF8C4351860DFF8BC05F9
:104C100000680028FAD100207047704701207047D3
:104C20002DE9F04104000D00160015F0805007003A
:104C3000DFF89C05DFF89C15096840F82150DFF883
:104C400094050068632804D10020DFF88815086007
:104C500006E0DFF880050068401CDFF87815086082
:104C6000320029002000A36E9847804657EA0800CA
:104C700000280DD1002E08D17FF03B00804629008E
:104C8000DFF85405FFF734FF02E03068C4F8940001
:104C90004046BDE8F081F8B504000D001600FFF7AE
:104CA000BDFF0700002F07D4320029002000FFF7C6
:104CB000B7FF0700FFF7B1FF3800F2BD2DE9F04F55
:104CC00085B004000D0016009B460E9FDDF83C8069
:104CD00002A80021002206C00838D4F8CC00A8425F
:104CE00007D22900DFF8F404FFF702FF7FF0150078
:104CF0003EE0D4F8D400582101FB05000190B8F142
:104D0000010F1BD10198C06C00900098049001988D
:104D100010F128090DF1080A049A49465046FEF799
:104D200069FC0098042805D0082815D10398304361
:104D3000039011E00298304302900DE00198406A20
:104D4000009000980490DDF804900DF1080A049A90
:104D500049465046FEF74EFC00983860D7F8009060
:104D60000DF1080A4A4651465846FEF743FC00201A
:104D700005B0BDE8F08FF0B587B00400DFF86054EF
:104D800002A80021002206C0083800260020019059
:104D900005A8009002AB320021002800FFF78EFF2B
:104DA0000700002F05D02100DFF83804FFF7A0FE30
:104DB00014E004AA02992800FFF732FF0700002F31
:104DC00006D50299DFF82004FFF792FE380006E0CE
:104DD000D5F894000290029880B20600300007B027
:104DE000F0BD70B504000025FFF718FF0600002E87
:104DF00005D42000FFF7BFFF0500FFF70EFF2800D6
:104E000070BD2DE9F04186B004000D00DFF8D063DD
:104E100003A80021002206C008380120019002A842
:104E2000009003AB2A0021003000FFF747FF070086
:104E3000002F05D02100DFF8B403FFF759FE1DE075
:104E4000002080460298042190FBF1F0804515DA9D
:104E500005AA03A850F828103000FFF7E1FE07006C
:104E6000002F08D503A850F82810DFF88403FFF7B7
:104E70003FFE380003E018F10108E3E7380006B010
:104E8000BDE8F08170B582B0040000255FF00040FD
:104E9000060000AA31002000A36E98470500002DEF
:104EA00005D52900DFF84C03FFF722FE0FE0DFF8FD
:104EB0004803060000AA31002000A36E98470500B1
:104EC000002D04D52900DFF83403FFF711FE280078
:104ED00076BD2DE9F04798B004000D00DFF8289367
:104EE0005FF00008290011A801F08AFA0BA811A9A7
:104EF0001822FEF78FFB0B98070001220DF13501F8
:104F000002A8FCF7ADF90600002E03D52900BF4822
:104F1000FFF7EEFDBFB2002F00F0888001AB4FF429
:104F20000072BB4902A8FCF76EFA0600019800283F
:104F300005D04FF4FA614FF4FA60FFF75EFEBFB29E
:104F4000B7F5007F02DD4FF4007800E0B846AE48C8
:104F500081461FFA88F858EA090900AA4946200044
:104F6000E36E98470600002E04D53100A448FFF7F1
:104F7000BFFD60E00098000C48F22F01884207D086
:104F80000099A048FFF7B4FD7FF00400060052E04E
:104F90001FFA88F842469E492000236E9847060073
:104FA000002E04D531009B48FFF7A2FD43E00A2004
:104FB00082465046B0F1010A01282CDB0020009007
:104FC00042F2107142F21070FFF717FE042200A99E
:104FD0002000636E98470600002E04D531008E48ED
:104FE000FFF786FD27E000992000D4F88020904745
:104FF00000900098844988420DD000998748FFF7B7
:1050000077FD7FF0040006004FF47A714FF47A7058
:10501000FFF7F3FDCDE716F1050F04D100998048A5
:10502000FFF766FD07E0B7EB080773E702A8FCF798
:105030005CFC002003E002A8FCF757FC300018B02D
:10504000BDE8F08770B504000D00FFF7E7FD06002E
:10505000002E06D429002000FFF7D3FE0600FFF73C
:10506000DCFD300070BDF8B50400002505266D4854
:10507000070000AA39002000A36E98470500002D04
:1050800004D029006848FFF733FD28E01420FFF71B
:10509000A9FD6648070000AA39002000A36E9847C2
:1050A0000500002D04D029005F48FFF721FD16E020
:1050B000009880B2009000995D48FFF719FD0098B4
:1050C000002802D0761E002EE0D10098002806D0DD
:1050D00029005848FFF70CFD5748FFF709FD280045
:1050E000F2BD70B582B004005FF0004500263C4878
:1050F000C06A0068002807D001203949C96A0968D8
:1051000088470120FFF76EFDA06910281CD1D4F854
:10511000A000002818D02000D4F8A010884706006E
:10512000002E04D031004548FFF7E2FC1AE01420BD
:10513000FFF758FD00AA29002000294B9B6E9847D5
:105140000600002E08D503E03D48FFF7D1FC09E03A
:105150003C48FFF7CDFC05E00098854202D03A4874
:10516000FFF7C6FC300076BD70B504000D000026C8
:10517000012D02D0A0682843A060A068216962695F
:105180001143884204D03148FFF7B2FC00201BE0F5
:10519000A069102808D194F8DD00002804D12C481B
:1051A000FFF7A6FC00200FE02000D4F88C10884701
:1051B0002000D4F8901088470600002E03D031005C
:1051C0002448FFF795FC300070BD0000043A002031
:1051D000AC360020003A0020C08000080884000897
:1051E0003C380020CC790008E0800008F479000801
:1051F000008800081C7C000804001A90407C00080D
:1052000000810008647C000800002F8014880008DA
:10521000AC340020C08800082081000824840008E5
:105220004081000800007090DC860008000071805A
:1052300060810008E8770008887C0008F486000890
:1052400080810008408400080C870008AC7C0008BE
:10525000D07C0008607700080100D1F8A800002881
:1052600002D0DFF8240400E000207047F8B5040005
:10527000DFF81804C569DFF81804060000AA310039
:105280002000A36E98470700002F05D03900DFF8F3
:105290000404FFF72DFCBDE0DFF8FC03060000AAC4
:1052A00031002000A36E98470700002F05D0390079
:1052B000DFF8E803FFF71CFCACE01420FFF792FCDA
:1052C0002000FFF7C9FF0700DFF8BC03874200F0AA
:1052D000A180200000F03FF90700002F05D0390021
:1052E000DFF8BC03FFF704FC94E00520C4F8E000FD
:1052F0002000FFF7B1FF0700DFF88C03874200F0C2
:105300008980B4F8A400DFF89C130843060000AAC3
:1053100031002000A36E98470700002F05D0390008
:10532000DFF87803FFF7E4FB74E0B4F8A600288503
:10533000B4F8A600DFF870130843060000AA310095
:105340002000A36E98470700002F05D03900DFF832
:105350005C03FFF7CDFB5DE02000FFF77DFF07005A
:10536000DFF82403874255D0200000F0B5F807008D
:10537000002F05D03900DFF83803FFF7B9FB49E00B
:105380002000FFF769FF0700BF48874242D0DFF8DF
:105390002403060000AA31002000A36E98470700EE
:1053A000002F04D03900BD48FFF7A2FB32E0C2480D
:1053B000060000AA31002000A36E98470700002FC6
:1053C00004D03900BD48FFF793FB23E02000FFF72E
:1053D00043FF0700AC4887421CD02000FFF743FE84
:1053E0000700002F04D03900B548FFF781FB11E01A
:1053F000B448060000AA31002000A36E98470700B9
:10540000002F04D03900B048FFF772FB02E00620FD
:10541000C4F8E0003800F2BD70B582B0040001208D
:10542000C4F8A8002000FFF75CFE0600002E04D0A0
:105430003100A648FFF75CFB1EE00520C4F8E00041
:10544000A348050000AA29002000A36E9847060083
:10545000002E06D59F48FFF74BFB0320C4F8C00081
:105460000AE03220FFF7BEFB012020600020C4F8D4
:10547000C0000420C4F8E0000020C4F8A8003000F8
:1054800076BDF8B5040025008048FFF7EFFE060062
:105490007D48864203D09048FFF72AFB14E08F48EE
:1054A000FFF726FB8A48070000AA39002800AB6EE8
:1054B00098470600002E03D031008948FFF718FBFB
:1054C00004207249C1F8E0003000F2BD10B50400BC
:1054D0002000FFF7D6FF10BD38B504000025814835
:1054E000FFF706FB80492000FFF7F3FC0500002DC5
:1054F00007D029007D48FFF7FBFA7FF00400050084
:1055000022E07B48FFF7F4FA7A492000FFF7E1FC3C
:105510000500002D07D029007748FFF7E9FA7FF052
:105520000400050010E07548FFF7E2FA7449200016
:10553000FFF7CFFC0500002D06D029007148FFF7CA
:10554000D7FA7FF004000500280032BD7047010043
:10555000C869808C704770B50400E5690026022098
:105560002060A06C002802D0E06C002806D16648BC
:10557000FFF7BEFA7FF0040006005EE0606F0028CF
:105580000AD02000616F88470600002E04D0310049
:105590005E48FFF7ADFA50E02000A16C8847060096
:1055A000002E03D05A48FFF7A3FA39E059492000EA
:1055B000D4F8882090470600002E06D05648FFF702
:1055C00097FA7FF0040006002AE02000FFF744FE6F
:1055D00006002D48864223D003202060E069406801
:1055E000012802D02000FFF7B1FF2000E16C8847BE
:1055F0000600002E03D04948FFF77AFA10E0200099
:10560000FFF72AFE06002048864209D02000FFF757
:1056100039FC0600002E03D031004148FFF768FA3C
:10562000A06F002809D02000A16F88470600002E37
:1056300003D031003B48FFF75BFA300070BDF8B58E
:105640000400002538480700E76100203885002065
:10565000B8840020B8600020F86000200600052E05
:1056600005DA002017EB86010861761CF7E72F4862
:1056700020622F486062616A2E48FFF739FA2E488F
:10568000A0622800F2BD0000ABAAFFFF3C3800205A
:1056900000004E90A4790008050010907C86000858
:1056A000A07F00080000319000006F902883000860
:1056B000C07F000803501790000018904483000832
:1056C000EC87000806001090608300087C830008C7
:1056D0000400109098830008E07F00080080000814
:1056E000F87B0008948600083889000820800008AC
:1056F000AC8600086C89000840800008C486000859
:105700004489000860800008BC770008B483000862
:10571000D08300087489000880800008A0800008F9
:10572000CC760008EC830008743900204F5500083F
:10573000CD5400083077000819540008F8B504006B
:105740000D0016005FF40031DFF8B00300F0B1FF88
:105750000028F7D10121DFF8A40300F053FFDFF8A0
:10576000A013DFF8980300F088FF0128F7D100228A
:105770002100C9B2DFF8840300F074FFDFF884135E
:10578000DFF8780300F079FF0128F7D10020070047
:10579000F6B2B7420EDA795DDFF8600300F05CFF25
:1057A000DFF86413DFF8540300F067FF0128F7D136
:1057B0007F1CEDE70121D14800F032FF0120F2BD4E
:1057C0002DE9F04104000D0016005FF40031CB48D4
:1057D00000F06FFF0028F8D10121C84800F012FF47
:1057E000C749C64800F049FF0128F9D1012221002C
:1057F000C9B2C24800F036FFC449C04800F03DFFBE
:105800000128F9D100208046F6B2B0450DDAC04932
:10581000BA4800F032FF0128F9D1B84800F01FFF64
:1058200008F8050018F10108EEE70021B34800F080
:1058300005FFB848FFF75CF90121B04800F0F0FE21
:105840000121AE4800F0FAFE3800C0B2BDE8F08198
:1058500038B504000D002800FFF799F932BD38B5BE
:1058600004000D002800FFF7A1F932BD70B5040057
:105870000D0016003200D2B229007C20FFF7A0FFF5
:10588000002070BD2DE9F14F0C0015004FF40046CB
:105890005FF000085FF000095FF0050AA346A94524
:1058A00027DAB5EB0900B04202DAB5EB090700E0F0
:1058B000370019EB0B0B3A00D2B259467C20FFF7A8
:1058C0003DFF8046B8F1010F0ED041469248FFF7E8
:1058D0000FF942F2107142F21070FFF78EF9BAF12F
:1058E000010ABAF1000FE6D10520824617EB09093B
:1058F000D5E70020BDE8F28F2DE9F3410400150043
:105900000026019810F080575FF006080198FFF715
:105910003EF90190042201A92000FFF7B3FF060021
:1059200057EA0600002801D0300032E0042200A926
:105930002000FFF79BFF06000098FFF737F928606B
:10594000002E03D07548FFF7D3F818E02868000C44
:1059500000047349884207D101997248FFF7C8F8DB
:105960007FF01500060013E02868002806D16E4875
:10597000FFF7BEF87FF03B00060000E008E0B8F15A
:105980000108B8F1000F03D094F8DC000128CDD154
:105990003000BDE8F6812DE9FC4104000120ADF89E
:1059A00004000020ADF8020001A8FFF7E7F8022686
:1059B00001AF0DF10008320039004046FDF71AFE34
:1059C000022200A92000FFF75DFF0500002D03D58E
:1059D0005648FFF78DF834E04FF47A714FF47A703F
:1059E000FFF70BF9022600270DF100083A003100FD
:1059F0004046FFF78FF8022200A92000FFF736FF8C
:105A00000500002D03D54A48FFF772F819E0022679
:105A100000AF0DF10208320039004046FDF7EAFD03
:105A2000BDF802104348FFF763F8BDF8020040F2EA
:105A30000111884205D04048FFF75AF87FF0040072
:105A400005002800BDE8F681F8B504005FF00045C8
:105A50000026052700AA29002000FFF74DFF0600B9
:105A6000002E03D53548FFF743F812E0009934487B
:105A7000FFF73EF80098B0F1004F06D03148FFF72D
:105A800037F87FF00400060003E02F48FFF730F8F6
:105A900003E03800471E0028DCD13000F2BD2B495E
:105AA00081652B49C1652B49816670470100002043
:105AB000274A0A66254A4A66264ACA66264A8A64E8
:105AC000264ACA64264ACA67264AC1F88020704717
:105AD00038B5254C2069042802D12448C4F88C002C
